:020000040000FA
:06000000020B1D020211BB
:03002B000207FECB
:030033000206833F
:030043000207B9F8
:0300530002014562
:03006B0002065D2D
:100083000201A501FF010503013727000000000B52
:100093002600000000FF000000FF0001FFFF010138
:1000A300004605000000E803FFFF9B05E80364002A
:1000B3006400B801020200080000050207040105FC
:1000C3001E02051E020A0A0103B80B02803E01024A
:1000D300FEFFE8030A050001FFFF020A1401E00026
:1000E30020FD0002061201FF0EB00E0000000153B6
:1000F30057353A2048656C702020202020202000AE
:100103008F1F951F0000000000009B1FA11F000010
:1001130000000000000000000000000000000000DC
:100123001D192319102020202020202020202020EA
:100133002020202020010E040100010006EF84028C
:100143009586C0E074F1120428A2AFE433FED2AF67
:10015300E5A7FFE5A1F5085FF509741055096006E9
:10016300121ACD75A1EF740855096008121AD375D8
:10017300A1F78024E508A2E092F0EFA2E082F0501C
:1001830017906198E0F89008FDE0C398A2D265D07B
:10019300335002E8F075A1FEEEA2E092AF7F0202B7
:1001A3000487C0E074F2120428A2AFE433FED2AF96
:1001B3009061A4E0F8759B00E591585408600875B8
:1001C30091F7121B1B8023E5915854106008759119
:1001D300EF121B218014E591A2E092F0E8A2E082E5
:1001E300F05007E0C2E0F0121C6B9061A3E0F8E569
:1001F300E9585404600E121C4175E9FB906193E0C9
:10020300A2E640F2EEA2E092AF7F01020487C0E0D3
:1002130074F2120428A2AFE433FED2AF9061A5E0DA
:10022300F8E5BF585404600675BFFB121C8380D4E5
:10023300C3E498F8E499F91202748026C3E49AFAA5
:10024300E49BFBE920E7E9120274E498F8E499F9E6
:1002530022C3E498F8E499F9120274E498F8E49953
:10026300F9C3E49AFAE49BFB22EB20E7CFE920E70A
:10027300E0B90010BB0008E88AF084F8AAF022E491
:10028300FBC8FA22EB70227B10C833C8C933C933C9
:100293005007C39AC3DBF280069A50012ADBEAC8EF
:1002A30033F4C8C933F4C9FA2275F008E4C833C873
:1002B300C933C933C99AC99B5004C92AC93BD5F06C
:1002C300ECFBC833F4C8E4C9FA22080808EAC0E022
:1002D300EBC0E086F0E7A4FA180986F0E7A42AFA4F
:1002E300180986F0E7A42AFA180986F0E7A42AFA7F
:1002F3001986F0E7A4FBE5F02AFA190886F0E7A4CB
:100303002BFBE5F03AFA190886F0E7A42BFBE5F09E
:100313003AFA18180986F0E7A4C5F02BFBE43AFA79
:100323001908E7C5F0C6A426F6E5F03BFBE43AFA64
:100333001886F0E7A4F6E5F00826F6E43B08F6E4B1
:100343003A08F6D0E0FBD0E0FA22E4CFC0E0E4CEF6
:10035300C0E0E4CDC0E0E4CCC0E075F020E626F6D2
:1003630008E633F608E633F608E633F6181818EC11
:1003730033FCED33FDEE33FEEF33FFC3EC9709EDB2
:100383009709EE9709EF97191919400FFFEC97FC9E
:1003930009ED97FD09EE97FE191906D5F0BFECF7A5
:1003A30009EDF709EEF709EFF7191919D0E0FCD0B9
:1003B300E0FDD0E0FED0E0FF222518C582C0E0E5D5
:1003C3001934FFC583C0E0E518C3958224F810AF44
:1003D300088583198582188008858319858218D238
:1003E300AFCEF0A3E520F0A37808E608F0A3DEFA89
:1003F300EFF0A3E58124FAF8E608F0A3E608F0A3FA
:10040300E608F0A30808E608F0A3E608F0A31581C0
:100413001581D0E0FED0E0F8158115811581E8C083
:10042300E0EEC0E022C0D02518C582C0E0E5193453
:10043300FFC583C0E0E518C3958224F310AF088598
:1004430083198582188008858319858218D2AFC8DD
:10045300F0A3E9F0A3EAF0A3EBF0A37908E709F02E
:10046300A3D8FAECF0A3EDF0A3EEF0A3EFF0A3D042
:10047300E0F0A3D0E0F0A3D0E0F0A3E520F0A3E503
:10048300F0F0A322851983851882E0C0E0A3E0F988
:10049300A3E0FAA3E0FBA37808E0F608A3DFFAE001
:1004A300FCA3E0FDA3E0FEA3E0FFA3E0C0E0A3E024
:1004B300C0E0A3E0F5D0A3E0F520A3E0A3F5F0109E
:1004C300AF0885831985821880088583198582186A
:1004D300D2AFD082D083D0E0F8D0E032120B97B9FC
:1004E300000302051EE490030178D0790C8002F02A
:1004F300A3D8FCD9FA7AD07B0E90008678C0790114
:100503008015E493A3AD82AE838A828B83F0A3AA82
:1005130082AB838D828E83D8E9D9E7758272758326
:10052300FD740312089D7582B1758321740012084E
:100533009D75F0108E1A8F1B85821F85831E85186B
:1005430082851983E0CEA3E0CF851F82851E83EBCE
:10055300C9EAC8EDCBECCAC3E833C8E933C9EA3307
:10056300CAEB33CBC3EA9EF51DEB9FF51CB35004D6
:10057300AB1CAA1DEC33CCED33CDD5F0DAAE1AAFFC
:100583001B22D083D082ECC0E0EDC0E0E493A3FC57
:10059300E493A3FDED4C600D1206A1EC24FFFCEDEA
:1005A30034FFFD80EFE493A3FCE493A3FDED4C60E3
:1005B3000D12073EEC24FFFCED34FFFD80EFD0E08D
:1005C300FDD0E0FCE493A3C0E0E493C0E0228519EE
:1005D30083851882E0A3FEE0A3F5207808E0A3F664
:1005E30008DFFAE0A3FFE0A3C0E0E0A3C0E0E0A3DC
:1005F300C0E0E0A3C0E0E0A3C0E010AF088582182C
:100603008583198008858218858319D2AFD083D05A
:10061300820208A3D083D082E9C0E0E493A3C38617
:10062300F0C5F095F0F908E493A386F0C5F095F0D2
:10063300700BE493A3C3994005E9048002A3E47516
:10064300F002A42582F582E5F03583F583D0E0F945
:10065300E493A3C0E0E493C0E022C0E074F2120488
:1006630028A2AFE433FED2AFE589A2E15003121909
:10067300C5758900C2C5EEA2E092AF7F010204876F
:10068300C0E074F2120428A2AFE433FED2AFE58BCC
:10069300A2E050031219C5758B00C2E880D8C0E0F0
:1006A300C3E49396087401939618400FE49366701D
:1006B3000808740193661870007019A3A3C3E49328
:1006C30096087401939618A3A3400DD0E0D0E0D010
:1006D300E00205C1A3A3A3A3A3A3D0E022740480D3
:1006E3000474028000CCC0E0EDC0E0E518C39CCCEC
:1006F300AD1950011D10AF068C188D1980068C188A
:100703008D19D2AF12081FD0E0FDD0E0FC22740295
:100713008000CCC0E0EDC0E0E518C39CCCAD19501F
:10072300011D10AF068C188D1980068C188D19D2F7
:10073300AF1207DCD0E0FDD0E0FC22C0E0C0F088BF
:10074300F0E4936670080874019366187000A8F0CB
:10075300A3A3700BD0F0D0E0D0E0D0E00205C1A39A
:10076300A3D0F0D0E022D083D082CCC0E0E493A326
:10077300600612087E1470FAE493A360061209A3BC
:100783001470FAD0E0FCE493A3C0E0E493C0E02249
:10079300C008C3E096F50808A3E096420808A3E062
:1007A30096420808A3E0964208A2D265D033E50832
:1007B3007001D3D00822C0E074F2120428A2AFE47F
:1007C30033FED2AFC2C0E5D1A2E45003121A55EEF4
:1007D300A2E092AF7F01020487CAC0E0E493A3C5FD
:1007E30082CCC582C583CDC583F0A3C582CCC58227
:1007F300C583CDC583DAE5D0E0CA22C0E0C0D0E826
:10080300C0E0E9C0E0E5A8D2AFC2C7A2E7A2E79281
:10081300AFD0E0F9D0E0F8D0D0D0E032CAC0E0E009
:10082300A3C582CCC582C583CDC583F0A3C582CCC5
:10083300C582C583CDC583DAE6D0E0CA2270090834
:100843000808226016181818C6C333C608C633C66C
:1008530008C633C608C633C6D5E0EA22C008C3E0DB
:1008630096F50808A3E096420808A3E09642080814
:10087300A3E09645087001D3D00822C0E0E493A317
:10088300D39C5010E493A3C39C400AD0E0D0E0D0A3
:10089300E0020786A3A3A3D0E022C09FF59FE473E1
:1008A300D09F22D083D082C09FE493C0E074019391
:1008B300C0E0740293F59F22C5822518C582C583C3
:1008C300351910AF07F5198582188007F519858248
:1008D30018D2AFC583222518F58210AF08F518404A
:1008E3000C15198008F51840021519D2AF85198324
:1008F300227404800A74038006740280027401C0A7
:10090300E0F4041208D9D0E0120B5A2200C0D0251B
:100913001810AF08F518500C05198008F518500287
:100923000519D2AFD0D022BB0102E722C082C08317
:1009330089828A83BB0003E08002E493D083D08260
:10094300226016080808C6C313C618C613C618C6FD
:1009530013C618C613C6D5E0EA222518F8E43519DC
:10096300F9222518FAE43519FB222518FCE4351978
:10097300FD22C3E0C696F608A3E0C696F608A3E0F8
:10098300C696F608A3E0C696F622251810AF08F51A
:1009930018400C15198008F51840021519D2AF221A
:1009A300C0E0E493A36C7009D0E0D0E0D0E002078C
:1009B30086A3A3D0E022E76670100809E766700AF1
:1009C3000809E76670040809E76622E06670100804
:1009D300A3E066700A08A3E066700408A3E0662239
:1009E300C3E09608A3E09608A3E09608A3E096A2C6
:1009F300D265D03322C3E096F008A3E096F008A3B3
:100A0300E096F008A3E096F022C3E697F60809E61D
:100A130097F60809E697F60809E697F622C3E493E2
:100A23009608740193960874029396087403939638
:100A330022E647F60809E647F60809E647F60809F5
:100A4300E647F622700422600D18C6C333C608C6F3
:100A530033C6D5E0F41822E026F608A3E036F608FC
:100A6300A3E036F608A3E036F622E657F60809E6D1
:100A730057F60809E657F60809E657F622E056F650
:100A830008A3E056F608A3E056F608A3E056F622BC
:100A9300E627F60809E637F60809E637F60809E611
:100AA30037F622E056F008A3E056F008A3E056F02C
:100AB30008A3E056F022E026F008A3E036F008A3EE
:100AC300E036F008A3E036F022E4C396F608E49695
:100AD300F608E496F608E496F622600D08C6A2E747
:100AE30013C618C613C6D5E0F322C6F4C608C6F467
:100AF300C608C6F4C608C6F4C622C3E7960809E7C3
:100B0300960809E7960809E79622C3E09608A3E04A
:100B13009608A3E09608A3E0962275D00075813F5E
:100B2300751801751903000204DFE6F008A3E6F067
:100B330008A3E6F008A3E6F022600C08C6C313C6B8
:100B430018C613C6D5E0F422E0F608A3E0F608A31E
:100B5300E0F608A3E0F622CAC0E0E6F0A308DAFA5A
:100B6300D0E0FA22E8F0A3E9F0A3EAF0A3EBF02245
:100B7300E0F8A3E0F9A3E0FAA3E0FB22EAF0A3EB99
:100B8300F0A3ECF0A3EDF022E0FAA3E0FBA3E0FC7A
:100B9300A3E0FD22E5C754F84401F5C779012225F6
:100BA30018F582E43519F58322C2AF75D69F02008A
:100BB30000221208A6C456001208A6A35700120862
:100BC300A6E558001208A6A05B001208A68A5E00DC
:100BD3001208A6995E001208A6255F001208A6DB7C
:100BE3005F001208A62260001208A66B60001208BC
:100BF300A6A760001208A61A61001208A686610063
:100C03001208A6A261001208A6D361001208A61258
:100C130062001208A61363001208A6C2630012083A
:100C2300A64366001208A69767001208A62A680062
:100C33001208A6B768001208A6DB68001208A6937C
:100C430069001208A6446A001208A6C16B001208C4
:100C5300A6006C001208A6766C001208A6CB6D00E5
:100C63001208A66E6E001208A6A26E001208A6BA9B
:100C73006E001208A65D6F001208A6E57100120847
:100C8300A68673001208A6AB73001208A6C97300E8
:100C93001208A69974001208A6EE77001208A6E0BF
:100CA300A8021208A63AA9021208A6A4A9021208C9
:100CB300A62DAA021208A6E9AA021208A631AB02BF
:100CC3001208A66CAB021208A6C2AB021208A62A2F
:100CD300AC021208A6AEAC021208A6C7AC021208F8
:100CE300A6ECAC021208A60BAD021208A649AD028F
:100CF3001208A698AD021208A6C1AD021208A610EA
:100D0300AE021208A6BCAE021208A684AF021208F5
:100D1300A6E9AF021208A6C2B0021208A6A1B10248
:100D23001208A6B0B1021208A6BBB1021208A6B9F6
:100D3300B2021208A6CAB2021208A642B3021208ED
:100D4300A6CAB3021208A62EB4021208A613B5024D
:100D53001208A644B5021208A662B5021208A6D567
:100D6300B5021208A61DB6021208A62AB602120878
:100D7300A633B6021208A633B8021208A67BB9023C
:100D83001208A60CBA021208A68BBA021208A65FB2
:100D9300BC021208A6BCBE021208A6D0BE021208EC
:100DA300A6DABE021208A6E4BE021208A6EEBE022E
:100DB3001208A6F8BE021208A602BF021208A63144
:100DC300BF021208A667BF021208A672BF0212086A
:100DD300A696BF021208A6BABF021208A61BC0023B
:100DE3001208A666C0021208A682C0021208A6EC68
:100DF300C0021208A638C1021208A680C102120856
:100E0300A600C2021208A6C4C3021208A680C40226
:100E13001208A649C5021208A6D5C7021208A62AB7
:100E2300C8021208A652C8021208A679C9021208FB
:100E3300A6BDC9021208A60DCA021208A6C2CA029A
:100E43001208A66CCB021208A6E0CB021208A680F9
:100E5300CC021208A612CD021208A69F8601120820
:100E6300A6D186011208A6DE88011208A6318901DF
:100E73001208A67789011208A60A8A011208A66F2A
:100E83008A011208A6AF8A011208A6148C0112085F
:100E9300A6108D011208A6DA90011208A675910119
:100EA3001208A67592011208A6D892011208A60488
:100EB30094011208A69696011208A6229701120819
:100EC300A62C97011208A65997011208A62C98017F
:100ED3001208A6EA98011208A61399011208A6405F
:100EE30099011208A67D9B011208A6519C011208C4
:100EF300A6909C011208A6119D011208A6D39D017C
:100F03001208A6059E011208A64C9E011208A68887
:100F13009E011208A6D79E011208A62B9F01120854
:100F2300A6A59F011208A60AA0011208A671A00196
:100F33001208A6FBA1011208A6C8A2011208A6DA8C
:100F4300A3011208A6D0A6011208A617A901120828
:100F5300A6BAA9011208A6F8A9011208A6D1AB01E5
:100F63001208A6E4AB011208A6EDAB011208A6F61F
:100F7300AB011208A60BAC011208A62AAC01120899
:100F8300A6DBAC011208A62EAD011208A638AD01EE
:100F93001208A642AD011208A68EAD011208A6DA08
:100FA300AD011208A6D7AE011208A69CAF01120824
:100FB300A649B0011208A658B1011208A670B201E1
:100FC3001208A668B3011208A67FB3011208A6BCD3
:100FD300B3011208A6DAB3011208A62DB401120850
:100FE300A65FB4011208A6FFB4011208A60AB6014F
:100FF3001208A693B6011208A60DB7011208A6A9F6
:10100300B7011208A6E6B8011208A6C0B901120872
:10101300A62BBA011208A6F4BA011208A617BB013F
:101023001208A6FCBB011208A640BC011208A69830
:10103300BC011208A6F6BC011208A61ABD011208CB
:10104300A645BD011208A68CBD011208A6B0BD01BC
:101053001208A629BE011208A693BF011208A6D141
:10106300BF011208A6FABF011208A6CDC0011208DB
:10107300A6F7C0011208A602C2011208A6CAD80325
:101083001208A602D9031208A623D9031208A665DB
:10109300D9031208A6C9D9031208A6D3D903120883
:1010A300A6E3D9031208A61ADA031208A6C3DD03BE
:1010B3001208A68BDF031208A67FE1031208A61D00
:1010C300E2031208A6A4E2031208A6D5C30112087C
:1010D300A639C4011208A697C4011208A6E2C401E6
:1010E3001208A6FDC4011208A624C5011208A641D0
:1010F300C5011208A64DC5011208A6F1C6011208C2
:10110300A60AC7011208A686C7011208A699C70135
:101113001208A6A9C7011208A64FC8011208A6BF44
:10112300C9011208A6D2CA011208A672CB0112087D
:10113300A67CCB011208A6EACB011208A6FBCB01C1
:101143001208A63ACC011208A668CC011208A635EB
:10115300CD011208A68CCD011208A6D1CD0112082B
:10116300A627CE011208A645CE011208A693CE01EA
:101173001208A661CF011208A6AFCF011208A6F18B
:10118300CF011208A674D0011208A69ED00112083E
:10119300A6D4D0011208A6E3D0011208A641D101BA
:1011A3001208A6B9D1011208A6FAD1011208A6495C
:1011B300D2011208A674D2011208A68ED201120817
:1011C300A6A8D2011208A67DD3011208A687D301CF
:1011D3001208A6C2D3011208A6D2D3011208A6DBB5
:1011E300D3011208A62CD4011208A640D401120878
:1011F300A65ED5011208A673D5011208A60DD60165
:101203001208A68CD6011208A62FD7011208A63AF7
:10121300D7011208A684D8011208A6A0D801120883
:10122300A6F4D8011208A662D9011208A6AED90104
:101233001208A6C8D9011208A60ADA011208A66D77
:10124300DC011208A605DD011208A67CDD011208E7
:10125300A6C2DF011208A6DADF011208A6DDDF014C
:101263001208A6E9DF011208A6FDDF011208A60590
:10127300E0011208A63CE0011208A630E1011208C1
:10128300A6BAE1011208A63CE2011208A6B1E201E6
:101293001208A689E3011208A6ABE3011208A642CD
:1012A300E4011208A64EE4011208A6ABE4011208F9
:1012B300A6AEE4011208A61DE5011208A669E6011F
:1012C3001208A67CE7011208A607E8011208A61A6D
:1012D300E9011208A6E4E9011208A615EA011208B9
:1012E300A63BEA011208A644EA011208A673EA0122
:1012F3001208A623EB011208A6D3EB011208A64697
:10130300EC011208A6F6EC011208A669ED01120819
:10131300A6A8ED011208A6F1ED011208A6E3CD037C
:101323001208A64ECE031208A69ACE031208A6E40C
:10133300CE031208A668CF031208A673D1031208BE
:10134300A6A3D3031208A6E9D6031208A618D70347
:101353001208A636D7031208A6A0D7031208A6C8F8
:10136300D7031208A6FBD7031208A630D803120826
:10137300A67FD8031208A621C1031208A69DC103A4
:101383001208A6C4C1031208A6F7C1031208A65681
:10139300C3031208A672C3031208A6B7C303120835
:1013A300A63CC4031208A688C4031208A618C503E2
:1013B3001208A6E6C5031208A641C6031208A6A68C
:1013C300C6031208A61BC7031208A644C7031208C4
:1013D300A685C7031208A63CC9031208A616CA03AA
:1013E3001208A6ECCA031208A6BBCB031208A6FF79
:1013F300CB031208A657CC031208A679CC03120814
:10140300A605CD031208A696CD031208A6CFEC03BA
:101413001208A6D9EC031208A613ED031208A67C42
:10142300ED031208A69DED031208A63DEE03120874
:10143300A6C2F0031208A6CBF0031208A616F10306
:101443001208A63FF1031208A64CF1031208A6BE28
:10145300F1031208A650F2031208A69EF203120823
:10146300A6C7F2031208A626F3031208A652F30333
:101473001208A6CDF3031208A617F4031208A65701
:10148300F4031208A68FF4031208A6A1F4031208AA
:10149300A6B3F4031208A6D2F4031208A6DBF403DE
:1014A3001208A6ACF5031208A6ECF5031208A6155C
:1014B300F6031208A631C2041208A61EB8041208C5
:1014C300A654B8041208A69FB8041208A6E8B904E3
:1014D3001208A6DEAC031208A60FAE031208A64B31
:1014E300AE031208A600B0031208A62AB00312081E
:1014F300A6A3B2031208A6E3B2031208A677B403A5
:101503001208A616B5031208A66EB5031208A6FFA5
:10151300B5031208A637B6031208A679B603120854
:10152300A6F3B7031208A678B9031208A6B9BB033A
:101533001208A6E7BB031208A613BC031208A61CD5
:10154300BC031208A672BC031208A602BD0312084C
:10155300A640C0031208A6C4C0031208A6FBCB040E
:101563001208A6AACA041208A6DB91041208A6F060
:1015730091041208A6A392041208A6E39204120887
:10158300A6FC92041208A63093041208A67D9304C5
:101593001208A6B193041208A6F393041208A6EF47
:1015A30095041208A6E8C0041208A61EC104120876
:1015B300A63AC1041208A67CC1041208A68CC10471
:1015C3001208A627C2041208A60080031208A65B0D
:1015D30080031208A6E180031208A6B18103120852
:1015E300A6FE81031208A6C982031208A6B44D0001
:1015F3001208A62B83031208A67A83031208A68D6A
:1016030083031208A6EA83031208A6598403120867
:10161300A67184031208A60487031208A69C8703F5
:101623001208A6D387031208A60B88031208A6C1C3
:1016330089031208A6118A031208A6E38A03120873
:10164300A61C8B031208A63B8B031208A6868B03EA
:101653001208A69C8B031208A6D254001208A6E215
:101663008B031208A6F48B031208A6AC8C03120892
:10167300A60F8D031208A64F8D031208A6538E03DF
:101683001208A6B590031208A6D391031208A63038
:1016930092031208A67392031208A62E930312084C
:1016A300A65093031208A65393031208A65D93034F
:1016B3001208A67993031208A6F393031208A62C23
:1016C30094031208A65894031208A69394031208CD
:1016D300A6AE94031208A6DB94031208A6FB940398
:1016E3001208A64495031208A67B95031208A67D4B
:1016F30096031208A6D8C9041208A6E4C90412085E
:10170300A620CA041208A626EE011208A649EE0175
:101713001208A620EF011208A669EF011208A6CC51
:10172300EF011208A62CF0011208A67DF0011208A1
:10173300A6F3F0011208A675F1011208A6EDF10156
:101743001208A630F2011208A689F6011208A6D1E2
:10175300F8011208A604F9011208A65DF90112089E
:10176300A66EFA011208A64CFB011208A6B4FC01EE
:101773001208A655FD011208A68BFE011208A650F9
:10178300EC021208A601ED021208A66CED02120883
:10179300A61BEE021208A616EF021208A68AEF0293
:1017A3001208A6B0F0021208A646F1021208A6A378
:1017B300F1021208A672F3021208A613F402120829
:1017C300A6ACF4021208A60AF5021208A6B2F502A4
:1017D3001208A644F6021208A6E1F6021208A6F4BD
:1017E300F7021208A6AC97031208A617980312086B
:1017F300A65F98031208A6A398031208A6FE9803EF
:101803001208A65B99031208A69699031208A61A52
:101813009A031208A6749A031208A6E39B031208FC
:10182300A6679C031208A6D29C031208A6EC9C038D
:101833001208A6FD9C031208A6579D031208A6C210
:101843009E031208A6D99E031208A621A00312081C
:10185300A69CA0031208A6D2A0031208A647A103C0
:101863001208A60BA2031208A6E9A3031208A6E90D
:10187300A4031208A6F4A5031208A606A7031208D8
:10188300A62EA8031208A63CA8031208A636A9038D
:101893001208A6D8A9031208A621AA031208A6367D
:1018A300AA031208A63EAB031208A6DFAB03120875
:1018B300A63DAC031208A60080041208A63D8004CE
:1018C3001208A6D680041208A6E181041208A629EC
:1018D30084041208A694AD041208A6C2AE0412082A
:1018E300A681AF041208A6D6AF041208A68AFE0387
:1018F3001208A6E2BD041208A60DBE041208A63EF5
:10190300BE041208A659BE041208A66EBE0412082D
:10191300A677BE041208A68ABE041208A612BF0444
:101923001208A637BF041208A66EBF041208A60C3D
:1019330078001208A63878001208A61A790012084F
:10194300A67D7A001208A6C17B001208A61B7C00A4
:101953001208A6207F001208A6F1C7041208A602E7
:10196300C8041208A6A2C8041208A636BC041208AA
:10197300A644BC041208A611CC041208A6BCC804D1
:101983001208A6CCC8041208A6E7C8041208A64F7A
:10199300C9041208A6EDC5041208A672C6041208EB
:1019A300A6D8C6041208A671FE021208A693FE0268
:1019B3001208A6F9FE021208A619FF021208A65F72
:1019C300FF021208A6B8FF021208A6CEA00412084E
:1019D300A6E3A0041208A6F8A1041208A633A204E1
:1019E3001208A64DA2041208A6D3A2041208A64701
:1019F300A3041208A661A3041208A678A30412087C
:101A0300A68BA3041208A6A3A3041208A6B8A304D2
:101A13001208A6D9A3041208A62AA4041208A63BF6
:101A23009D041208A6499D041208A6C29D0412082B
:101A3300A6979E041208A669A0041208A639CB042F
:101A43001208A609B3041208A676B3041208A6F274
:101A5300B4041208A64AB5041208A69EB5041208D7
:101A6300A6A7B5041208A637F9021208A663F9025D
:101A73001208A6FDFB021208A63BFC021208A67779
:101A8300FC021208A68BFC021208A6A4FC02120890
:101A9300A697FD021208A649FE021208A65DFE02E1
:101AA3001208A67DBF041208A6A1BF041208A6BA95
:101AB300BF041208A6F9BF041208A62CC00412081A
:101AC300A65CC0041208A6C4C0041208A6C7C004BA
:101AD3001208A6D1C0041208A6DEC0041208A66329
:101AE300B0041208A68BB0041208A6CCB0041208E6
:101AF300A6EAB0041208A605B1041208A66DB10443
:101B03001208A679B1041208A6D8B1041208A6FCDB
:101B1300B1041208A6BDB2041208A6CAB204120880
:101B2300A6DBB2041208A659C9041208A671C90497
:101B33001208A697C9041208A6E984041208A6325B
:101B430086041208A63886041208A64F86041208D3
:101B5300A67086041208A68686041208A69A86042E
:101B63001208A61987041208A67E87041208A61471
:101B730088041208A6ED88041208A6FD880412083A
:101B8300A60C89041208A6617F001208A6857F00AF
:101B93001208A6AD7F001208A6D57F001208A6B0D2
:101BA300B5041208A61CB6041208A63AB604120815
:101BB300A6ABB6041208A6CCAA041208A6E5AA048A
:101BC3001208A6FCAA041208A605AB041208A62351
:101BD300AB041208A62DAB041208A637AB041208F7
:101BE300A64AAB041208A6D0AB041208A645AC045F
:101BF3001208A673AC041208A6C4AC041208A610FB
:101C0300AD041208A62BAD041208A635AD041208C4
:101C1300A646AD041208A689AD041208A65FCA043D
:101C23001208A650E3031208A67CE3031208A69A3F
:101C3300E3031208A6ADE3031208A6C8E3031208E0
:101C4300A627E4031208A655E4031208A658E803DE
:101C53001208A6AFE9031208A6E1E9031208A65485
:101C6300EA031208A6C0EB031208A6E8EB03120866
:101C7300A6FDEB031208A60DEC031208A64DEC0318
:101C83001208A68FEC031208A69FEC031208A6B550
:101C9300C4041208A6C5C4041208A6E3C4041208A7
:101CA300A6FEC4041208A625C5041208A646C50448
:101CB3001208A660C5041208A698C5041208A6BB9C
:101CC300C5041208A6F5CA041208A6A599041208A9
:101CD300A6B599041208A6D39A041208A6059B0474
:101CE3001208A6279B041208A64F9B041208A66895
:101CF3009B041208A6A49B041208A60B9C041208BA
:101D0300A6479C041208A68E9C041208A6BB9C043A
:101D13001208A6E79C041208A64FBA041208A6618B
:101D2300BA041208A67BBB041208A608BC04120856
:101D3300A6F1C6041208A650C7041208A68EC7044B
:101D43001208A6CFC7041208A65FA4041208A6C2ED
:101D5300A4041208A610A5041208A692A50412084A
:101D6300A643A7041208A663A7041208A6008002CC
:101D73001208A60C80021208A66980021208A68126
:101D830080021208A63081021208A64381021208BB
:101D9300A6A181021208A62E82021208A67F820241
:101DA3001208A6FF82021208A6BA84021208A689A4
:101DB30086021208A6EF87021208A68C8802120870
:101DC300A6688D021208A64B8E021208A6E08E02A8
:101DD3001208A6058F021208A6998F021208A6B64A
:101DE3008F021208A6D68F021208A6659002120867
:101DF300A69B90021208A6C990021208A635920269
:101E03001208A65692021208A6D792021208A67DBD
:101E130093021208A6C993021208A63B9402120861
:101E2300A6DA94021208A64495021208A6AE9502F9
:101E33001208A65196021208A6CC96021208A6080A
:101E430097021208A67097021208A6D498021208E5
:101E5300A69399021208A62A9A021208A69A9B022E
:101E63001208A6379C021208A69C9C021208A6A878
:101E73009E021208A6C59F021208A6FB9F02120823
:101E8300A6DCA1021208A6D3A3021208A6F6A40296
:101E93001208A6FC95041208A66E96041208A67CE6
:101EA30096041208A68C97041208A6AE8D04120895
:101EB300A6DA8D041208A6438E041208A6AD8F0479
:101EC3001208A6D08F041208A685CD021208A63ADE
:101ED300CE021208A69FCE021208A697CF021208BE
:101EE300A62BD0021208A678D1021208A61AD20293
:101EF3001208A6E4D3021208A6E5D4021208A6002B
:101F0300D5021208A62FD6021208A6DED70212089F
:101F1300A682D8021208A6F9DB021208A6F4DD0293
:101F23001208A68ADE021208A6E0DE021208A62E16
:101F3300DF021208A6B5DF021208A62FE00212087C
:101F4300A667E0021208A655E7021208A69BE9025B
:101F53001208A67DEA021208A672EB021208A67402
:101F6300C3041208A6B8C3041208A603C4041208C3
:101F7300A63FF6031208A6F1F6031208A621F903F9
:101F83001208A6A1F9031208A633FA031208A685BC
:101F9300FA031208A6BEFA031208A6D9FA03120816
:101FA300A6FFFA031208A628FB031208A681FC0366
:101FB3001208A6BBFC031208A6C3A7041208A6DED8
:101FC300A7041208A622A8041208A648A804120807
:101FD300A66AA8041208A682A8041208A624A904C3
:101FE3001208A62EA9041208A643A9041208A6657E
:101FF300AA041208A66EAA041208A677AA04120855
:10200300A680AA041208A63D89041208A63D8D04E1
:102013001208A6428D041208A6448D041208A6A72E
:10202300CB041208A671CB041208A6D3CB04120862
:10203300A6DAFF011208A6A04D001208A6034D0060
:102043001208A6A44C001208A61D4B001208A6AA4B
:102053004A001208A6764A001208A61F4A00120870
:10206300A6E548001208A65848001208A632480000
:102073001208A66E47001208A6AD45001208A64036
:1020830045001208A61145001208A60E45001208C5
:10209300A6DE43001208A6C042001208A67C410037
:1020A3001208A6AE40001208A63440001208A66724
:1020B3003F001208A6CE3E001208A6373E001208C3
:1020C300A6FC3D001208A65C3D001208A68A520039
:1020D3001208A60352001208A6AA51001208A6303D
:1020E30051001208A60651001208A6C85000120893
:1020F300A6C84F001208A61B3D001208A6BE3C004E
:102103001208A6A23C001208A64B3C001208A63BEC
:102113004E001208A6183C001208A6BD3B00120888
:10212300A68C3B001208A65538001208A663370098
:102133001208A60B4E001208A62736001208A6B3F3
:102143008B031208A60235001208A67F340012087A
:10215300A64434001208A6F033001208A6E43300A4
:102163001208A64D33001208A61B32001208A6C29D
:102173002F001208A64F2D001208A6032D001208E7
:10218300A6E52B001208A67A2B001208A6A42A00A3
:102193001208A67529001208A60F29001208A641E5
:1021A30029001208A6D84D001208A6DE82030000FB
:1021B3000080FBE4730000030020019D8600000003
:1021C3000020019E860000040042017D830000057B
:1021D3000042019F830000060042018E8300000736
:1021E3000020019B86000010004203710F000011C4
:1021F300002003C20E000012001003820F03000030
:10220300002103C30E030001002001C50E060000D8
:10221300001001C60E050B000021010000050B0193
:102223000021010000050B000123010000050B0143
:102233000123010000050B020123010000050B032C
:102243000123010000050B040121010000050B051A
:102253000121010000050B060121010000050B0708
:102263000121010000050B080121010000050B09F4
:102273000121010000050B0A0121010000050B0BE0
:102283000121010000050B0C0121010000050B0DCC
:102293000121010000050B0E0121010000050B0FB8
:1022A3000121010000050B100121010000050B11A4
:1022B3000121010000050B120121010000050B1390
:1022C3000121010000050B140121010000050B157C
:1022D3000121010000050B160121010000050B1768
:1022E3000121010000050B180121010000050B1954
:1022F3000121010000050B1A0121010000050B1B40
:102303000121010000050B1C0120010000050B1D2C
:10231300012801000087000100270F24000200F9B3
:102323000E25000200FB0E26000200FD0E27000210
:1023330000FF0E28000100010F29000100020F8495
:10234300000400030F86000100070F2A00010008A4
:102353000F2B000100090F2C0001000D0F2D0008A9
:10236300006F062E0001000E0F2F0001000F0F302B
:10237300000100100F31000100110F32000100773E
:102383000633000100780634000100120F36000105
:1023930000790638000100130F390001000C0F8388
:1023A300000200250F630001008406640001000A97
:1023B3000F650001000B0F6D000100850671000819
:1023C30000670666000100240F43000100150F4457
:1023D300000200160F45000100180F460002001905
:1023E3000F470008007C06480001001B0F4B00014B
:1023F300001C0F04000100280FA10001002B0F3760
:102403000001002A0F88000100290F3C0001007A17
:10241300063D000100140F490002001D0F67000173
:102423000086064D0002001F0F4E000100210F4FD2
:10243300000200220F3E0001007B060000000000A6
:102443000000013636010100010201000103010011
:10245300010401060605020000070100340801001B
:102463000F090401010D0100FF0E0800001702000F
:1024730000190100FF1A0100011B0100FE1C0100ED
:10248300081D0200001F01000120010001210200BC
:10249300002301000F240200002601000127010090
:1024A30008280200FF2A0100072B0102402C01002B
:1024B300002D0100012E0100012F0100FF30010B4F
:1024C3001C310800003A0100083B01000F3C0100E9
:1024D300013D0100FF3E04000042040000460400E9
:1024E300004A0400004E0400005204000056040099
:1024F300005A0400005E20FFFF00002101000100DC
:102503002102000001236600010123670002012369
:10251300680003012369000401216A000501216B9E
:10252300000601212C010701212D010801212E01A3
:102533000901212F010A012130010B012131010C75
:102543000121C8000D0121C9000E0121CA000F019C
:1025530021CB00100121CC00110121CD001201215A
:10256300CE0013012132011401213301150121CFC2
:10257300001601213401170121D000180121D100D7
:10258300190121D2001A0121D300360001000600EF
:1025930000000F0000000000000000000000000029
:1025A30003FFFF00000403FFFF0000FFFF0FF40120
:1025B3000005C4040320000100000B00000000001C
:1025C30000000003010F00000000000000000000F5
:1025D30000000000000000000000000000000000F8
:1025E30000000000000000000000000000000000E8
:1025F30000000000000000000000000000000000D8
:102603000000000000000000010371030103010347
:102613000103010301032203020301031003000367
:10262300000300030003000300030003420300034D
:1026330024030603000300030403120325032303F7
:1026430025032303040304030003000300034403DB
:102653000003000323030003650321003503810303
:102663000003050300030003000300032503230302
:1026730003027102300160021102700201020202C0
:1026830002028002100261023A00410063027302F7
:1026930072026202430200021302380000020002C7
:1026A30004021202000200020002000204020402F9
:1026B300370037003C0244020002390000020002E6
:1026C30065020002350281020002050282028302D2
:1026D3000002010171010101010111010101310137
:1026E300010101018001100161013B00140063013C
:1026F30073017201620143010001130106013D01EF
:102703003500040112010001000100010001040170
:102713000401330133013C0144013201360000015D
:1027230000016501000135008101000105018201FD
:10273300830100010300710030016000110070008B
:1027430031022003500480001000610000001400D7
:102753006300730072006200430000001300060070
:102763000000000004001200000000000000000050
:1027730004000400370037003C024400000000005E
:102783000000000065000000350081000000050026
:102793000000830000003F1E7B1E451E7F1D4B1E55
:1027A300811E4B1E8D1E511E7F1D4B1E811E571EEB
:1027B3007F1D5D1E7F1D631E7F1D691E7F1D6F1E96
:1027C3007F1D751E7F1D000000000000000000003B
:1027D30000000000000000000000000000000000F6
:1027E30000000000000000000000000000000000E6
:1027F300000001009D170200251703002B1704009A
:10280300311705003717060043171100611714002D
:102813006717150055171F005B17FFFF000007EC34
:10282300FDFDFDECDCDCCCBCACAC9C9C8C7C7C6C02
:102833006C5C5C5C4C4C3C3C2C2C1C1C03EAF5E5AE
:10284300D5D5C5B5A59595858575756565555545E5
:1028530045353525251515050ACD0E029D0E05AF07
:102863000E07A30E0C850E0D910EFF000000160F30
:1028730000000B150B020002220F3300000E5A69F1
:1028830067426565416C6C69616E6365303901034C
:102893000507090B0D0F00020406080A0C0D303062
:1028A30016181920231A1C1E3000034A49434E18D8
:1028B3001A25050200011916181616182303000C11
:1028C3000E020B040B0A0708000F00393D3F373C8B
:1028D3003C362C442D303017181921301B1D1F3066
:1028E30002040201010101090200BE040AE8030017
:1028F300000E003C003C00E8030405FF1E1E090314
:102903000A04040C100815040C282C08C082C08388
:1029130012137790030E7487F0A37421F0900310C1
:102923007481F0A37421F0900312747BF0A37421DB
:10293300F09003147475F0A37421F0024A9274F7B3
:102943001203BCE9FE900302E4F0EE900301F07C75
:102953007C7D067A037B03121D43900F1BE09003DB
:102963000BF090030C7467F0A37406F0122151026C
:102973004E0674F41203BC8A088B09EB548070036F
:10298300022A48900301E0F912144F8A0A8B0BAE16
:102993000AAF0BEE4F7003022A3F1258A6E0F9125A
:1029A3004D3690031C1254A6A3A3A3A3A3A3A3A3CE
:1029B300E0640270378A828B83124DD480078C8245
:1029C3008D83124D7AEC4D60208C828D83E06A708A
:1029D30003A3E06B70E88C828D83A3A3E06970DEB0
:1029E300900F211265CDF0804C12212D8E828F83A2
:1029F300E064017034EE2418122A9C120900124F6D
:102A0300911206E0EE2412122A9C120900125F06AC
:102A13001208FC1236191206E4EE2417125F121282
:102A23001335740A12090F800CE064027007EEFA82
:102A3300EFFB12204FEEFAEFFB12143DAA08E50953
:102A43006480FB8051EA5402600C900ED07401F054
:102A5300EA6402FA8040EA5404600912214BE50853
:102A630064048029EA540860291221398B0BEA4552
:102A73000B701690031EE4F0A3F0A3F0A3F07A0802
:102A8300FB900301E0F912158DE5086408FAAB0920
:102A930080047A007B0002343F125E13F50A780A41
:102AA3002274F41203BC8A088B098A828B8312670F
:102AB3004E125DF238F583E02409FA7B00121437D5
:102AC3008A0A8B0BAE0AAF0BEE4F7003022B6A8E92
:102AD300828F837402F0A3E41250AEA3A3A3A3E8EE
:102AE300F0A3E9124D4DA3A3A3A3A3A3A3F0E50869
:102AF3002403F8E435091244A0125DF23AF5831277
:102B0300549FF0EE2409FAE43FFB8E828F83A3A344
:102B13001249E7F5838882E0A2E58E828F83A3A31F
:102B2300A3A3A3500474018001E4F0E5082403F88F
:102B330088828983124DD4EA1243C23BF583122B58
:102B43006D1208F8EA125DF23B124A5A8E828F83A5
:102B5300124DD2121413740312090FEEFAEFFB9005
:102B63000301E0F912144302343FE0F508A3E0F552
:102B730009750A0078082274F21203BC8A088B09CB
:102B8300ECFAEDFB740E120BA2E0FC1213A78A0CF5
:102B93008B0DAE0CAF0DEE4F6031AC08AD091213C7
:102BA30095E96027AC08AD09EEFAEFFB12139BE938
:102BB30070158E828F83122BD3EEFAEFFB12138FD5
:102BC300AA08AB091213BF7900800279B4800EA35F
:102BD300A3A3E0F508A3E0F5092212090F7F06027B
:102BE30005D174EF1203BC74F712098D8A0A8B0B9B
:102BF300ECFEEDFF750DB3750C007510008002053A
:102C030010902904E493F8E510C3984003022CF7CD
:102C1300851008AA087B001214078A088B09EA4565
:102C23000960DC8A828B83A3A3A3A3A3E0250CF50D
:102C33000CF50EC3E50A950EE50B940050C17C1507
:102C43007D007900EEFAEFFB12141F8508828509D7
:102C530083A3A3A3A3A3E0F8E50AC3950C2825E067
:102C6300F8E433F9E50828F582E50939F5831252CA
:102C730065125286120F5DEAFCEBFDEEFAEFFB12D2
:102C83001D43850882850983A3E06401700A124FFE
:102C9300917401125058803DAC18AD198508828596
:102CA3000983124DD21213EFE960307408120BA29C
:102CB300E0C0E0124F91D0E0F07408120BA2E06480
:102CC30003700CAC18AD1912548D121D43800C8582
:102CD3001882851983124F991252808508828509BB
:102CE300831243CCA3A3125060C0E0125AFED0E07B
:102CF300F0750D00A90D740912090F7F090205D1A2
:102D030074F71203BCE9FE8A828B83A3A3A3A3A354
:102D1300A3E0540860338A828B83A3A3A3A3A3A352
:102D2300E0540260218A828B83A3A3A3A3A3A3A35A
:102D3300A3A3E06406600F74E96E600A74CD6E604D
:102D43000574F06E7003122169024E0674E81203D3
:102D5300BC74F812098D7406120BA21268B1ECFE52
:102D6300EDFF8917751500122FA11213B38A0A8B71
:102D73000BEA450B7003022F5DEE2410125674A963
:102D83000A120DD78A128B13EA45137003022F5DC3
:102D9300EE2403F50CE43FF50DEE2406F508E43FBD
:102DA300F5097C00850882125E471213B98A108BDD
:102DB30011850C82850D83E0851282851383A3A37D
:102DC300A31242AE851282851383A3A3A3A3E8F0C3
:102DD300A3E9123621851282851383A3A3A3A3A398
:102DE300A3A31258D3851282851383A3A3A3A3A3FA
:102DF300A3F0EE1243C23F122FB21208F8125DF194
:102E03003F124A5A851282851383A3124DCC1214A2
:102E130013740312090F7514007423120BA2E0F547
:102E2300167424120BA2780C120B4B022EE285109F
:102E330082851183124DD21213F585088285098389
:102E4300A3EAF0A3EB122FBDA3A3124D5B12320131
:102E5300A2E6500F850882850983A3A3A3A3A3E059
:102E6300D2E1F0E5157067850882850983A31261B5
:102E73000D900365E0687003A3E0697051850882D3
:102E8300850983A3A3A3125679751000781012093C
:102E930000780C1208F4E516F51078101209007486
:102EA30026120BA21206E49003721206E479007450
:102EB30010120BA2124D4512210F740A12090F852D
:102EC3000882850983A3A3A3A3A3E04405F07401A7
:102ED3002514FC122FA11213B98A108B110514E5C6
:102EE3001045116050851408C3E508950AE4950B55
:102EF3005043E51475F006A4F8A9F0E51228F8E5A7
:102F03001339F9E8240CF508E439F509850882F545
:102F130083E41277A6E064016003022E3175150184
:102F23008508828509837401122FBD125B53E8F073
:102F3300A3E9022E48AA12AB13120DDD7812120870
:102F4300FCAD167424120BA2E0FCA917EEFAEFFBFA
:102F530012216F740212090F803A8E828F83A3A30A
:102F6300A3E0C0E07403120BA2D0E0123621C0E04C
:102F73007404120BA2D0E0F0E50A450B7009740546
:102F8300120BA274B980077405120BA27410124DB0
:102F930068122133740812090F7F100205D18E8243
:102FA3008F831251898E828F83A3A3A3E0F922F525
:102FB30083123B53750E00780C221277AAA3227456
:102FC300E91203BC74F312098D8A0A8B0B89168CE0
:102FD300148D157424120BA2123B4FAA0CFB120D75
:102FE300CBE9F513AA0CAB0D120DD1E51370030257
:102FF30031C3750E00800F8E828F83A3A3A3A3A377
:10300300E0D2E3F0050EE50C1248A1350DF583E09F
:10301300F8E50EC39840030231BAE5137003023199
:10302300BAE50E75F006A4F8A9F0E50C28F8E50D4D
:1030330039F9E8240CFEE439FF8E828F83A3A3A31E
:10304300A3A3E0A2E040BD750F0075080875090051
:10305300E5156003750F207C087D007900AA18AB85
:103063001912141F8E828F83E060379003B5E064DA
:10307300017017E50FD2E3F50F7509108E828F8368
:103083001231E01248DA74FF8028430F0C75080CE4
:103093008E828F83A31231D6A3A3A3A3126BA5A3FE
:1030A3008010E5166009E50FD2E6F50F75080A12E0
:1030B30031F4F07402120BA2E50F125B82C0E074CC
:1030C30004120BA2D0E0F07405120BA2124D66128B
:1030D3002049740C120BA2E0600302319D740812A4
:1030E3000BA212428B8E828F83A3A3A3A3F0740837
:1030F300120BA212320A123B45E51412320160117F
:103103009003B5E0C0E07408120BA2123B5BD0E061
:10311300F0850C82850D83A3A3A3E0C0E07408129D
:103123000BA2125E6BD0E0124D91C0E07408120B3B
:10313300A2123B65D0E0F07408120BA21231D61232
:103143006771125B8CE012675AEAF0A3EB125B74AF
:10315300C0E012673ED0E0F07408120BA2123339BC
:103163001231CD1246ED3B125B611243C2125AF883
:10317300F510A3E0F51175120078101208F8124A41
:1031830055EA124D2E3BF583124DD41214137403DA
:1031930012090FAA18AB191220438E828F83A3A39F
:1031A300A3A3A3E0D2E0F0740C120BA2E06003022D
:1031B3002FFA15130230077900AA0CAB0D12216305
:1031C300740D12090F7F0F0205D1A3A3A3A31261EC
:1031D30011EA22126111850A82850B8322A312311F
:1031E300E5221231E9221248CFF985188285198325
:1031F30022A31231F9221231E9E8F0A3E9221232B3
:103203000522126305E0221247141258DF39F583B1
:10321300E508F0A3E509F02274F01203BC74E91287
:10322300098DEAFEEBFF89088E828F83A3A3A3A3F4
:10323300A3A3A3A3E0F9120DF58A0C8B0DEA450DA8
:103243007003023334E50870157C048E828F83A3E8
:10325300A3A3A3A3A3A3A3E0F9120DFB804F7C08B0
:103263008E828F83A3A3A3A3A3A3A3A3E0F9120D29
:10327300FB8A0A8B0BEA450B6033E508F5097809ED
:10328300120900850C82850D83A3A3A3A3A3A3A383
:10329300E0FD8A828B83A3A3A3E0FC8A828B83A3B2
:1032A300123339E0F912132F740112090F1265A8B2
:1032B3003F125696607B88828983124DD074061222
:1032C3000BA2123343124DD47408120BA2123343D0
:1032D300A3A3E0C0E07410120BA2D0E0F0850C822F
:1032E300850D83A3124DCC740E120BA21268B17418
:1032F30011120BA2E4123201FAA3E0CA241FF582D1
:10330300E43AF583124595C413135403FC70027C0D
:103313000488828983E0F9780C1208FC742059FD33
:10332300744059F9740212096512216F740212096B
:103333000F74170240A612518F850A82850B8322D0
:10334300EAF0A3EB124899A3A32274F71203BC7407
:10335300FA12098DE9FE7F018F087D00800475084C
:10336300000D123DD9E0F8EDC3985025ED75F00638
:10337300A4F8A9F0EA28F8EB39F9E824111246F386
:10338300A2E050DA540C60D6E0A2E250D47F008071
:10339300D08A828B83A3A3A3A3A3A3E0703EE508F3
:1033A300A2E0400574016E70338A828B83A3A3A3CA
:1033B300A3A3A37401126611E0C0E07403120BA26D
:1033C300D0E0126609E0C0E07404120BA2D0E0F072
:1033D3007405120BA2EF124D681221337406024ECC
:1033E30003C082C0837901122163024A9274F412EA
:1033F30003BCEA4B602D9003B1E064027025900E8C
:10340300D0E4F08A088B09F50AF50B78081208F462
:103413007A027B00900301E0F9121581740412090A
:103423000F8012900ED07401F07A027B009003019A
:10343300E0F912158D8005740212090F7F0402054D
:10344300D1C082C083900F32E075F005A4FCADF0CB
:1034530079007A887B0D12141F7B008012EB75F0C4
:1034630005A4F8A9F012360E74FEF0A304F00B9035
:103473000F32E0F8EBC39840E4024A92C082C08363
:103483007C007B0080037C010B900F32E0F8EBC3E0
:1034930098504DEB75F005A4F8AAF0EAF912360737
:1034A3007003A3E0F460E11235FEE82403F8500151
:1034B3000988828983E024FFF0A3E034FF1244FFEC
:1034C300F9E84970C1EB75F005A4F8EAF91235FE85
:1034D3008882898374FEF0A3041235F9E4F080A88E
:1034E300ECA2E050179086411206E07A047B00902C
:1034F3000301E0F9121581740412090F024A927450
:10350300F71203BCEAFEEBFF900F32E070030235C3
:10351300F0EE2411125E0C70030235F08E828F835D
:10352300A3124DCC120FD5E96402600F8E828F83F4
:10353300A3A3A3A3A3E070030235F07C00803CEEB9
:103543001248A13F12610BEC75F005A4FAADF0ED42
:10355300FB74882AF582740D3BF583E0687003A33E
:10356300E0697016EE2412125E0CFBEDF9748A2AE0
:10357300F582740D1246F66B60780C900F32E0F80A
:10358300ECC39840BA7C0080010C900F32E0F8EC59
:10359300C398505EEC75F005A4F8A9F012360770D5
:1035A30003A3E0F470E31235FE123619124C5AEA03
:1035B300F0A3EB12362188828983A3A31235F9A3E2
:1035C300740C1258D37A04FB900301E0F91215939B
:1035D300EA4B4C4D70179086411206E07A047B004B
:1035E300900301E0F9121581740412090F790102A5
:1035F3004E06790080F9126634A322748828F87481
:103603000D39F92212360EE064FE22748828F58201
:10361300740D39F58322EE1248A53FF58322F0128B
:103623004F87E02274E81203BC74FC12098D740204
:10363300120BA2E4F0A3F090031C12579D8518828D
:10364300851983E4F0A3F075140190035FE0A2E30E
:1036530050030236DE12159F8A088B098C0A8D0BE4
:103663008A0C8B0D8C0E8D0F90031E780C1209752E
:103673001237537810790C120AFD50077A017B0038
:1036830002374E850C14850D15850E16850F177898
:1036930014791012034DA814A915900F21E0C398B3
:1036A300E4995003E0F514123753780C79101203A0
:1036B3004DE4F512F51378087910120A0C90031EE5
:1036C3007808120B2D801412610D90031C12528680
:1036D300EEFAEFFB1214CDAE08AF09EE4F60648E25
:1036E300828F83A3A3A3E0F8E514C3985029EE24A3
:1036F30003F582E43FF583A814E0C398F0602174D6
:1037030002120BA21262F11254CAEEF0A3EF124C92
:103713008DFEA3E0FF80C48E828F83A3A3A3E4F076
:103723008E828F83A3122BD285188285198312561A
:10373300988E828F83A3A3A3A3608C1231E11244DA
:10374300C9808A7402120BA2124DD47404022F99F9
:10375300900F1FE0F510A3E0F511E4F512F5132225
:1037630074F21203BC8A0A8B0BE9FE7A007B009089
:10377300031C122BD590031C125698601E0A850851
:1037830082850983A3A3A3A3125698600E0AEA7045
:10379300010B88088909E8450970E3900F2212613B
:1037A3000DC3EA98EB9940030238527A067B001264
:1037B30014C78A0C8B0DA80CA90DE84970030238B5
:1037C3005288828983E50AF0A3E50BF0EE888289AB
:1037D30083A3A3F0900F21124740A3A3124894E4BC
:1037E300F0A3F090031C125183600F8508828509B2
:1037F30083A3A3A3A3125286801F90031C12528695
:1038030090035FE0A2E3401112159FEAF8EBF9EC95
:10381300FAEDFB90031E120B6790035FE0A2E350E7
:103823002E7A087B00900301E0F9121593EA4B4CC2
:103833004D701C900F1F1271D878081208F47A0883
:103843007B00900301E0F9121587740412090F023B
:103853002BE074F21203BC74F312098DEAFEEBFF42
:103863008E828F83A3A3A3A3A3A3A3A3A3A3E0F500
:103873000A900ED0E0700579BA023B3975080175DC
:103883000900750C00750D007C087D007900AA18ED
:10389300AB1912141F7405120BA27401123B71545D
:1038A3000460127402120BA2E0D2E6123B715408B8
:1038B3007003750803E05410600674404508F5086A
:1038C300E0540860227402120BA2E044C0123B7160
:1038D3005420600A7403120BA2E0D2E08008740340
:1038E300120BA2E0D2E1F08E828F83A3A3A3A3A342
:1038F300A3A3A3E07016120F6385188285198312A0
:1039030068B17402120BA2E0D2E2802C640F701033
:103913007402120BA2123B7974044508F508807BEC
:103923008E828F83A3A3A3A3A3A3A3A3E064028E86
:10393300828F8370061231F5F08060A3A3A3A3A343
:10394300A3A3A3E06403700DAC18AD19EEFAEFFB6B
:103953001220F780468E828F83A3A3A3A3A3A3A3DE
:10396300A3E0640170359003B5E060107402120B9C
:10397300A2123B79750910750AFF80187402120BA5
:10398300A2E0440C1254CA74FDF0A374FFF0740453
:103993004508F5088E828F83123B4FEE2415125E85
:1039A3000CA2E0503F7402120BA2E0540C701B8E69
:1039B300828F83124DD412184BE9700579BB023BF9
:1039C300397402120BA2E0D2E5F0EE2415125E0C5C
:1039D300A2E050107402120BA2E0540C64047004B1
:1039E300E0D2E5F0EE2411125E0CC0E07404120B79
:1039F300A2D0E0124D68122049740C120BA2E060B1
:103A030003023B327408120BA212320AEE2418127C
:103A13005E0CC0E0123B45D0E0125B69E0C0E0748D
:103A230008120BA2126751125E0338F583D0E0121D
:103A330048D4640170119003B5E0C0E07408120B20
:103A4300A2123B5BD0E0F07408120BA2125B4E246F
:103A530017FAE43FFB8A828B83E0FCE8241CF5829F
:103A6300E439F583ECF0A3E41251A0E0C0E0E824CC
:103A730022F582E439F583D0E0F07408120BA21228
:103A83003B65E50AF07408120BA21247101246EDCB
:103A930039F583E50CF0A3E50D125E82FCA3E0FD8E
:103AA30012677CECF0A3ED123F62124D7E123B3E97
:103AB30039126179C0E0E8242FF582E439F583D027
:103AC300E0F0EE241B125E0CC0E07408120BA2128D
:103AD3006765D0E0F0EE241A125E0CC0E0740812A1
:103AE3000BA212675112566A38F583D0E012678F22
:103AF300122B6E1208F8124F79124D7E740B120BB3
:103B0300A21248B7121413740312090FEE241512EC
:103B13005E0C5440601290032C125698600AAA1847
:103B2300AB191273A51221B6AA18AB19122043744C
:103B33000C120BA2E0F9740D022BDDE82428F582A8
:103B4300E422E82412F582E439F58322123B53225E
:103B5300E0F50CA3E0F50D22126755125ADF38F594
:103B630083221267552423F582E438F58322F0EE8D
:103B73002415125E1322E0D2E3126305123B832263
:103B83001231E9E8F0A3E9F02274F71203BC7E6373
:103B93008A828B83E0600C7905120C87E9F87456EE
:103BA300C398FE90035DE0600CF9120C87E9F8EE10
:103BB300C39824F2FEEEF9024E0674F61203BC74A7
:103BC300FE12098D8518828519831268B1E9FEEC0E
:103BD300FAEDFB9004C71256986035A818A9198806
:103BE30008890978081208FC7D01740E120BA2E003
:103BF300FCEEF99004C7124B0D1221B674021209A0
:103C03000F8B09EA450960047900800679B28002C6
:103C130079B60242B674F71203BCE9FE90030E12A2
:103C23005698601F7409120BA2E0F5087808120970
:103C330000EEF990030E124B0D1221B67401120916
:103C43000F800279B6024E0674F71203BC8908ECA2
:103C5300FEEDFF79B5E508245E601F14600624F8C5
:103C6300602F80389004C912518360309004C912C8
:103C73004B0D1221B61268AD802090031012601C08
:103C8300601AEEFCEFFD900310124B0D1221B6806B
:103C93000B90030C124D45121D437900024E06741E
:103CA300F71203BCE9FE79B574AB6E700B90030C8D
:103CB300124DD4121D437900024E0674F21203BC56
:103CC3008A088B09ECFEEDFF750A01900365E06538
:103CD300087004A3E065097010120F5DEAFCEBFDA8
:103CE300EEFAEFFB121D43802A120F698A0C8B0D2B
:103CF300E508650C7004E509650D7009EEFAEFFB44
:103D0300120F6F800EEEFCEFFDAA08AB09120CE751
:103D1300E9F50AA90A022BE074F51203BCEAFEEBEB
:103D2300FF8C088D09750A01120F5DEAFCEBFDEEAD
:103D3300FAEFFB121D3DE96401700B900365124419
:103D4300BB125286800EAC08AD09EEFAEFFB120CE3
:103D5300EDE9F50AA90A026C7174F61203BCEAFED6
:103D6300EBFF7A0C7B001214C7EA4B6066EE24204B
:103D7300125E0C8A828B83F0EE2421123DE1F0EE79
:103D83002422123DE1A3F0EE2423123DE1A3A3126A
:103D9300569D123DEA125286EE123B3F3FF58312C7
:103DA3003DEAA3A3E8F0A3E91256AC8A828B83A36E
:103DB300A3A3A3A3A3A3A3F0EE242F125E0CC0E03E
:103DC300123DD9D0E0124D9A123DEFA3A3A3A3A3B2
:103DD3001252860242BBEA1248A53BF58322125EC9
:103DE300138A828B83A322E0123DEF22F8A3E0F92A
:103DF3008A828B83A3A3A3A32274F61203BCECFED3
:103E0300EDFF79B390035CE0702790038EE06401CB
:103E1300701FEE2411125E0CF9120C6F8A088B09C5
:103E2300A808A90912527DE8496004790080027943
:103E3300A10242BB74F41203BC74FE12098DECFEA2
:103E4300EDFFEE2416125E0C6405700DEE2406FCE5
:103E5300E43FFD1220FDE96067AC18AD19125B0861
:103E6300121851851882851983125698604EE87589
:103E7300F009A4F8AAF075F009E9A42AF974EA286C
:103E8300F874F339F9E8FAE9FB8A828B837808122C
:103E93000B4B123EC8120B0D401E125274123EC839
:103EA300120B4B9086597808120A5A8A828B8378B0
:103EB30008120B2D7900800A79A2800679A180026D
:103EC30079C802343A124F8778082274F41203BC7B
:103ED30074FF12098DEAFEEBFF90035CE0706D90B6
:103EE300038EE06401706575083A7509007808125D
:103EF30008FC740212095D8808890978081208FC15
:103F03007C017D007A007B00121071740412090F8A
:103F1300E9703612508974011254CAE0C0E0124F9E
:103F230079D0E0123F62743A1258D3900334120BE3
:103F330073124F83120B679086597808120B4B90BC
:103F430003347808120AB98003123F54740102340F
:103F53003CEE240FF582E43FF583E4F0A3F022F076
:103F6300125B342274F01203BC74F612098DECFE5A
:103F7300EDFF740212096D1220FDE9700302403057
:103F8300AC18AD197402120965121851851882858F
:103F930019831256987003024030E875F009A4F8AB
:103FA300AAF075F009E9A42AF974E628F874F3393C
:103FB300F9E8FCE9FD125089E4F01252748C828D09
:103FC30083120B73124F83120B6790865978081272
:103FD3000B4B8C828D837808120AB98C828D83787F
:103FE30008120B4B90867D780C120B4B7808790CDA
:103FF30012034DE50C450D450E450F7030851882B3
:1040030085198312471075F009A4F8AAF075F00911
:10401300E9A42AF974EE28F58274F339F58374015F
:10402300F07A007B08900546E0F9121479740A804F
:104033007274F01203BC8A088B09ECFEEDFF123F89
:104043005490866D780C120B4B124F83780C120927
:10405300CE604CEE240E125E0C640170051220C17A
:10406300803FE070151220BBE960368E828F83A3F8
:10407300A3124A725403700C802764027013122037
:10408300BBE9601DEEFCEFFDAA08AB0912187580B1
:1040930010E0640370051220BB800679A1800279C9
:1040A300A3800312090F7F080205D174F61203BC23
:1040B300EAFEEBFFEE240AF508E43FF509850882E2
:1040C300F583124D7EEC1258DF3DF583E4F0124D7B
:1040D300881220AF850882850983E02406FCA3E0CB
:1040E3003400FD8E828F83124DD41220FD85088209
:1040F30085098312568D7054124290121D3DE9704A
:104103001D120F5D8A088B09AC08AD0990030C12D0
:104113004DD4121D3DE970061215EDE9602E8E8215
:104123008F83124D748E828F83124DD412187BE9C4
:1041330060158E828F83A3A3A3A3A3A3A312674EA9
:104143001258D8E4F0A3F01244E2E4F012567F7060
:104153001A124171124DD41220B585088285098344
:1041630012568D700612507B74A1F00242BBEE24EE
:104173000A1242438882F5832274F61203BCEAFED4
:10418300EBFFEE240A1242437A187B001214C78510
:104193000882850983EAF0A3EB1242AEE849700373
:1041A30002423DEEFAEFFB1220A312567F60741217
:1041B300427D64018E828F83A3A3A3A3A3A370076D
:1041C30012426D740E8020125698700F1242901294
:1041D3001D3DE970061215EDE96007124263740D87
:1041E30080051242637405124D9A540364017007EB
:1041F30012424C7405800B90035DE0C0E012424C08
:10420300D0E0124A61F81273A4A3E0F9120C878577
:1042130008828509831267512417F582E438F583F0
:10422300E9801A850882850983124DD41214CD853D
:104233000882850983E4F0A38003124C4CF0807854
:10424300F8E43FF988088909228E828F83A3A3A308
:10425300A3A3A3A3A312425C22A3A31248AFA32246
:104263008E828F83A3A3A3A3A3A3A3A3A3A3126752
:10427300552416F582E438F583228E828F83A3A317
:10428300A3A3A3A3A3A3A3A31244F4E02290030C28
:10429300124D828E828F83A3A3A3A3A3A3A3A3A35D
:1042A300A3E02406FAA3E03400FB22124A65F8A334
:1042B300E0F922740212090F7F020205D174F11290
:1042C30003BC8A0A8B0B8C088D097A187B001214A5
:1042D300C78A0C8B0DAE0CAF0DEE4F70030243BAC1
:1042E3008E828F837401F0E508240DF8E43509F913
:1042F30088828983E0FAC3E49AFA95E0FBE5081221
:1043030043C235091243D0FB8E828F83A3A3A3A399
:104313001249DB8E828F83A3A3F0EEFAEFFB120C1C
:10432300398508828509831265D670098E828F8349
:10433300A37405800690035D1243CCF0EE2417F8B6
:10434300E43FF9880C890D8E828F83A3E0F9120C68
:1043530087E9850C82850D83F0EE2416F8E43FF996
:10436300E508240EFAE43509FB88828983124C623E
:10437300E5082410FAE43509FB850C82850D83E0FA
:10438300FC88828983E0F88A828B83E0C398C39C8C
:104393001262FAF0EEFCEFFDAA0AAB0B1220A9E9B8
:1043A300F508700AEEFAEFFB120C45E9F508EEFA90
:1043B300EFFB1214CD8003750810A9080250761282
:1043C30043C622240EF582E422124D5422F583E0E3
:1043D3002AFAA3E03B2279010208A374F41203BC76
:1043E300EAFEEBFF8E828F83A3A3A3A3A3A3A3A3BE
:1043F300125E3DF5831265D6702A12427D70251236
:1044030044CFE06405701D1244CFA3E0F874016843
:10441300600574066870071244E274028005124452
:10442300E27403F0124171124B0DE4F0EE2408F82C
:10443300E43F1244A0242DF582E43AF583E0C0E082
:104443001244ABD0E01258C8FAA3E0CA242AF5827A
:10445300E43AF583E0C0E01244ABA3D0E01244FF9A
:10446300C81248A138F5831244BB1244C9125286BC
:10447300120F5D8A0A8B0BAC0AAD0B850882850986
:1044830083E024061249F0121D43850882850983BF
:10449300124DD4120C45124CFEF002343FF98882BF
:1044A3008983E0FAA3E0CA2285088285098312443E
:1044B300B52212459AA3A3221244BF221261158585
:1044C3000882850983221244B5A3A3228E828F8397
:1044D300A3A3A3A3A3A3A3A31248BE1248AB228EF4
:1044E300828F83A3A3A3A3A3A3A3A3A3A31244F48D
:1044F300221248CFC81243C638F583221258CCF88B
:10450300A3E022EA1265B73BF583220243D9C082B6
:10451300C083900322749DF0A37420F0900324744D
:1045230091F0A37420F0900326748BF0A37420F011
:104533009003287497F0A37420F0024A9274F41243
:1045430003BCEAFEEBFF1245A3F508120F638A0AC8
:104553008B0BA80AA90B8E828F8312459568700373
:10456300A3E069602AE508A2E550248E828F83A325
:10457300E0FB900322124B0D1221B68E828F831221
:104583006751240A12569270061245A3C2E5F0023F
:10459300343F12459AE022E0FAA3E0F5838A8222AF
:1045A3008E828F8312425EA3E02274F41203BCEA6C
:1045B3002408FCE43BFD8C828D83124710242012D7
:1045C30046F3FE74035EF5091248A039125B4C886A
:1045D300828983F0A3A882A983E50960097402652F
:1045E300096003024679740C5EF508601774086568
:1045F300086011740465087013740265097005EE90
:10460300A2E4402A1247192423124746740C650872
:104613007016124702242412472BFCA3E0CC124647
:10462300ED3CF583A312474C740265097005EEA2B5
:10463300E44043124702242612472BFFA3E0CF1284
:104643005670A312474C124706242812475B123BAD
:104653003F3CF583A312474CE508601274086508D4
:10466300600C740C650860067404650870081247D2
:104673001924221247461247191246E17005EEA289
:10468300E1500C12471912566A3C1246FB801090F7
:1046930003021246FD900302E004F088828983A39B
:1046A300A882A983EEA2E7503212470224211247BF
:1046B3005B1246E160251247192430124746EEA2E9
:1046C300E150188A828B83A3A3A3A3A3A3A3A3125A
:1046D30044A52431F582E43A1246FB02343F2421F7
:1046E300F582E43CF583E05403222424F582E4229A
:1046F300F582E439F583E022F583124740F022EA9C
:104703002408FC8C828D83E0FFA3E0CF22124714A0
:1047130022126115E8228A828B83A3A3A3A3A3A3F6
:10472300A3A3E0FCA3E0CC22F582E43FF583124788
:1047330040F0A3A882A9838C828D83E022E0888243
:10474300898322F582E43CF58312475022E0888274
:104753008983F0A308A98322F582E43FF5831247F6
:10476300508C828D83E0FCA3E0CC22C082C0838A7C
:10477300828B831245A7F8740358F98A828B83A32B
:10478300A37401F0E960057402697061740C58FC4C
:10479300601474086C600F74046C70137402697095
:1047A30005E8A2E4401D8A828B83A3A37402F074FC
:1047B3000C6C700A8A828B83A3A3E02402F0740238
:1047C300697005E8A2E440258A828B83A3A3E024D1
:1047D30004F0EC600F74086C600A740C6C60057470
:1047E300046C70098A828B83A3A3E004F0E8A2E738
:1047F30050318A828B83A3A3E00412617FF9A3E083
:10480300F5838982A3A3A3E0540360178A828B8371
:10481300A3A3E004F0E8A2E150098A828B83A3A357
:10482300E004F08A828B83A3A3E004F0024A92C0DF
:1048330082C0838A828B83A3A3A3A3A3A3A3A3A3DB
:10484300A3125698600C8A828B83A3A3124DCC12B9
:1048530014CD024A9274F71203BCEAFEEBFF8E8278
:104863008F83124FA0A3A3A3A3A3A3A3A3E4F01234
:104873004894A3A3A3A3A3A3F0A3F0E81265B739B5
:10488300F583E4F0122073EEFAEFFB12207F024E61
:1048930006A312489922126634A3A3A322E812485E
:1048A300A522240BF582E4221248AF221248CFF549
:1048B300838882221248BE12518F221248C22212CA
:1048C30048CFC8242BF582E438F58322E0F8A3E02F
:1048D300221256B9A3E022123B868E828F83A3A3B2
:1048E300A32274F61203BC74F412098D1249F7FC67
:1048F300A3E0F5838C82A3E0FC7402120BA2EC12FA
:1049030058C8124A167404120BA2124D6E6C701220
:10491300124A091249EE7406120BA21249DB241A39
:10492300803A7402120BA2E064016005E064067031
:104933003CEA2402F8E43B1244A0125B3C3AF583C0
:10494300E0C0E07403120BA2D0E01258C824131283
:1049530049F07406120BA21249DB241BF8A3E034BE
:1049630000F97408120BA2E8F0A3E9802974061277
:104973000BA2E4F0A3124A041249EE7408120BA22C
:104983001249E7C8241AF582E438F583E0C0E074DD
:104993000A120BA2D0E0F07406120BA21256986012
:1049A3002B7406120BA2124DD4120CDBE9640170B6
:1049B3001B120F5D8A088B09AC08AD097406120B34
:1049C300A2124DD4121D3DE964017007AA18AB1958
:1049D3001220F1740C0242B81249DF22EAF0A3EB71
:1049E3001258CC221249DFF8A3E0222412FAA3E0E2
:1049F3003400FB228A828B83A3A3A3A3A3A3123134
:104A0300F9F0124A0922EA2402F8E43BF988828980
:104A130083E0222402F8A3E03400F922C082C08399
:104A230074FD12098D124A3FC0E07402120BA2D02A
:104A3300E0124D681220EB7403024A8F8A828B8343
:104A4300A3A3A3A3A3A3123B838A828B8312425CF7
:104A5300E0221265C5350BF583E0FC7D0022124A86
:104A63006522124A6922F0850882850983E02212B1
:104A73004AA322C082C083124A99600624FC6007BD
:104A83008008122061800312205B800312090FD07B
:104A930083D0820208A3124A9F24FB228A828B833B
:104AA300A3A31248AFE022C082C083900F24E0701A
:104AB30025900686E0701F8A828B83A3A3A3A3A3FA
:104AC300E07013124B1160388A828B83A3A3127395
:104AD300A4E06407602A8A828B83A3A3A3A3A3A36E
:104AE300A3A3E070128A828B83124B1760097A3476
:104AF3007B011218C3800990032A124B0D1221B6B1
:104B0300024A92EEFAEFFB9003241248AB22124AB8
:104B13009F640622124AA364052274F61203BC742E
:104B2300FA12098DEAFEEBFF7403120BA2125AE587
:104B33007403120965122067125E096003024C4771
:104B43008518828519837432F07405120BA2126BD7
:104B530098C0E07401120BA2D0E0124C81C0E07443
:104B630002120BA2D0E0124C87F8A3E0F9E84960E7
:104B730017E824171246F3FAE824161246F32AF824
:104B83007401120BA2E028F0AA18AB19120D3B8A8C
:104B9300088B09A808A909E8497003024C3C8E82D6
:104BA3008F83124C5AA3A3124C7A125B3C39124DD9
:104BB30096C0E0E82420F582E439F583D0E0124D75
:104BC30091C0E0E82421F582E439F583D0E0124C6A
:104BD3008DC0E0E8242AF582E439F583D0E0F0744F
:104BE30005120BA2E0FCE8124C522C1249F0E81219
:104BF3004D2E39F583124C7A242DF582E439F58351
:104C0300EC124C87FAA3E0FBEA4B601BE8242BFA77
:104C1300E439FB8E828F83A3A312471D2416F582EA
:104C2300E43CF583124C628E828F83A3A3A3A3A3D8
:104C3300A3A3A3E8F0A3E9800AEEFAEFFB12206D29
:104C4300124C4CF074060242B812507F74102212B8
:104C530048A539F583E02212518F8882898322E0A7
:104C6300FC8A828B83E02CFCA3E03400FD8A828BD8
:104C730083ECF0A3EDF022EAF0A3EBF0E822124C70
:104C830092A3E0221251A4A3E022124C92E022123A
:104C93004C9622124C9A22F08E828F83A3A3A3A355
:104CA3002274F61203BCEAFEEBFF125E0970421295
:104CB30020798E828F83A3A3A3A3A3A3A3A3A3A3D8
:104CC3001256986006124B061221B6125E09700B3B
:104CD300124DC8120D35124CFE8015EE24081241F8
:104CE30074124DD41214CD850882850983E4F0A390
:104CF300F0EEFAEFFB12206D0242BB12507FE92265
:104D030074F61203BCEAFEEBFF8C088D0912184BF4
:104D1300E9700479018011AC08AD09EEFAEFFB905C
:104D23000328124B0D1221B60242BB242BF582E459
:104D3300227D00EE2402FAE43FFB22A3E08E828F61
:104D43008322124D82EEFAEFFB2212505C124D5475
:104D530022E08E828F83A322E0850882850983A3C4
:104D6300A3A3227401F0AA18AB1922123B86740480
:104D730022A3A3A3A3A3A3A3A3A3A3124D8222E0CD
:104D8300FCA3E0FD22A3123205FAA3E0FB22126288
:104D9300FEE022F583740112678AA3E022C082C079
:104DA3008312208590032A7455F0A37420F0024ADD
:104DB30092C082C0837C0879FF90030C124DD412F9
:104DC30014AF024A928E828F83A3A3A3A3A3A3A3A8
:104DD300A312518F2274F71203BCE9FE12659A12D3
:104DE3005696601A88828983A3E054037010EEFB01
:104DF3001248A039F583124E32E0F91213298003C9
:104E030012090F7F010205D1C082C083EAF8EBF9D2
:104E130088828983A3A3A3A3A3E0FB88828983A3B6
:104E2300A3A3A3124E32A3E0F9121329024A92E07C
:104E3300FA88828983A3A32274F01203BC8A088BA5
:104E4300098C0A8D0B890FEA125B10E02430FA7B80
:104E5300001214378A0C8B0DAE0CAF0DEE4F70039E
:104E6300024F768E828F837401125FCE1208F87C14
:104E7300177D00EE2419FAE43FFB12141374031296
:104E8300090F850A0C850B0D780C1208F87C0912A2
:104E93004D34121413740312090F7410120BA2125F
:104EA3004F991252807412120BA2124FA0E0C0E06D
:104EB300125B30D0E0125B58C0E0124F79D0E012A1
:104EC3004FB6C0E0125788D0E0F07414120BA2E082
:104ED300C0E0124F83D0E0F0EE2427123F57741541
:104EE300120BA2120B73124F91120B67125B16E592
:104EF3000F124FBBF8A3E0F9EE240D125280741980
:104F0300120BA2E0C0E0125B42D0E0126BB8E0608B
:104F13002FEE24271254952430124FA8240E126A20
:104F2300351274931208F8E508125DF23509124A36
:104F33005A8A828B83124DD4121413740312090FED
:104F4300EE241A125E0C5403601D90031A12569835
:104F5300600CEEFAEFFB1273A51221B68015EEFA80
:104F6300EFFB12143D800CEEFAEFFB900301E0F926
:104F73001214430240A9EE2411F582E43FF5832283
:104F8300124F8722EE2412F582E43FF58322EE12BC
:104F93005E033FF58322126111EE240B221261118D
:104FA3008882898322F8E43FF98A828B83123B86C5
:104FB300E50822126630E02212505CA3A3A3A3A348
:104FC300A3A3A3E02274F11203BC8A088B097A20FD
:104FD3007B001214378A0A8B0BAE0AAF0BEE4F60BD
:104FE300728E828F8374041250C08E828F83A3A328
:104FF300A3A3125058124D3E125060F50CA3E0F5D6
:105003000D750E00780C1208F87C107D00125B08F9
:10501300121413740312090F850882850983124D34
:1050230076EE2416FAE43FFB120CD5850882850937
:1050330083A3A3A3A3A3A3A3A3A3A3E0C0E01256A4
:105043004FD0E0125070C0E0125AEBD0E0125091F2
:10505300121443801E12505C221250A422A3A3A355
:10506300A3A3125069221250A4A3A3E022F0125B5F
:1050730024E0227F070205D112507F22EE240CF593
:1050830082E43FF58322EE1243C63FF58322F0EE1E
:10509300FAEFFB900546E0F922E8F0A3E91250A4E9
:1050A30022F0850882850983A3A3221250B222121B
:1050B3004A69F8A3E0F98E828F83A3A3221250B228
:1050C30012509CE02274F61203BCEAFEEBFF7A0551
:1050D3007B00121437EA4B60278A828B8374081291
:1050E300630B8A828B83A3A3E8F0A3E9124D9A8A08
:1050F300828B83A3A3A3A3F0900546E0F912144384
:105103000242BBC082C083E9900ED1F090031674B3
:10511300CDF0A37420F090031874BBF0A3740BF0CC
:1051230090031A74CDF0A3740BF0024A9274F71231
:1051330003BCEAFEEBFF8908EE4F700312196B9074
:10514300032E125698700890032E802212610D8848
:10515300828983A3A3A3A3A3A3A3A3A31251838895
:10516300828983A3A3A3A3A3A3A3A3A370DEEEF0C7
:10517300A3EF1251A0E4F0125195E508F0024E0698
:1051830012518FEA4B22A3A3A3A3A3A3E0FAA3E0A4
:10519300FB22A312519A22124C96A3A3221251A4CA
:1051A300221256BDA3A32274F71203BC90032E80D0
:1051B3000D8E828F83A3A3A3A3A3A3A3A3A3125799
:1051C3009DEE4F60348E828F83A3A3A3A3A3A3A3D7
:1051D300E06970DD8E828F83A3A3A3A3E06A7003CB
:1051E300A3E06B70CC8E828F83A3A3A3A3A3A3E0BE
:1051F3006C70BEEEFAEFFB80047A007B00024E0671
:1052030074F71203BC90032E12579D90032E123194
:10521300D1687002EB69701CE0C82409F582E43898
:1052230012610B90032E12528690032E12579D800B
:1052330027125790EE4F60208E828F83A3A3A3A3E0
:10524300A31231CD687002EB6970E68A828B83A367
:10525300A3A31252651252861214CDEEFAEFFB028B
:105263004E06A3A3A3A3A3A31254BEA3A3A3A3A3C2
:1052730022851882851983126111EE240FF582E4C9
:105283003FF583123B862274F01203BC74FA1209B1
:105293008D8A088B098A828B83A3A3A3A3A3A3A3C9
:1052A300A3E060336401602F8A828B83124DD41292
:1052B3000FD5E97022850882850983A3A3A3A3A33D
:1052C300A3A3A3E064037014740412096DAA08ABCA
:1052D300091220F7E97016790202547E8508828547
:1052E300098312610D7404120BA2125286E508247D
:1052F3001112698E24321249F01214C78A0A8B0BD9
:10530300AE0AAF0BEE4F700302547C7C327D007902
:105313000012141F7402120965850882850983A38C
:10532300A3A3A3A3A3A3A3A3E0F91213717402126B
:105333000BA2E0C0E0125659D0E0F0EE242CF50A9F
:10534300E43FF50B7403120BA2E0850A82850B83FD
:10535300F07901EEFAEFFB1220DF85080C85090DC9
:10536300750E00780C1208F87C1C7D0012548D1207
:105373001413740312090FEE2430125495243212BD
:105383004FA82411F8E43509F9E8FCE9FD8C828D76
:1053930083125B4E125663124FB01258A0127493CD
:1053A3001208F88C828D831254A6124DD412141352
:1053B300740312090F7404120BA21254BA12528608
:1053C30090030212549FA3A3A3F0900302E004F0FE
:1053D30012159F1268ADEE242A125E1B750D00850F
:1053E3000A82850B83E0780C120A478A828B83E555
:1053F3000CF0125483E50C1254CAE4F0E5082415AA
:1054030012698EA2E074015007120BA2740180048A
:10541300120BA2E4F0EE2427124243AA18AB19128E
:105423001359E924FE850882850983F0EE242EF8BA
:10543300E43FF9E8FCE9FD1254AE120274E88E82EF
:105443008F83A3A3A3A3A3A3A3A3F01254AE120217
:10545300748B09EA4509600F8E828F83A3A3A3A3EC
:10546300A3A3A3A3E004F0EE2420125E0C440812CD
:105473005E7712147979008002791074060240A6CF
:10548300EE2429F582E43FF58322EE240BFAE43F70
:10549300FB22F8E43FF9E8FAE9FBEE22124D54A3AC
:1054A300A3A322124D828A828B83228C828D831244
:1054B30044BFE0FA7B00221254BE221261158E8291
:1054C3008F83A3A3A3A322F0851882851983227453
:1054D300F41203BCEAFEEBFF12159F1268AD900FA6
:1054E30015E0F8EE242B125E0CC398400302563DE0
:1054F300125E277012EE242B125E0C041256ACC0FF
:10550300E0125483D0E0F0EE2428125E0CFC790004
:10551300800109EE242C125E0CF8E9C3985026751D
:105523000801750900E97808120A47125E27550831
:1055330060E0E92CFC750801750900E97808120A96
:1055430047E04508F0EE2427125674EE125663EC3A
:105553008A088AF0A4F8ABF0E42BF9E098F8A3E00A
:1055630099F9C3E89508E99400EE40352427125EC3
:105573000CF8125E276030125659125679A3E4F0E4
:10558300EC7050EE2420125E0C44201248D4C0E08C
:10559300EE125670D0E0F0EE2430125674A3E08081
:1055A3005812548474FFF0900355E0FA900F18E0FA
:1055B300F508EA8508F0A4ABF075F064A4FAADF041
:1055C30075F064EBA42DFB8E828F83A3A3EAF0A373
:1055D300EB80ACEE2420125E0C54DF12569DECF0EF
:1055E3008C08EE2427125E0C8508F0A4FAABF0EECB
:1055F3002430F582E43F1243D0FB12564FEAF0A366
:10560300EB1256B4C0E0EE2425F582E43FF583D0D7
:10561300E0F0EE241CF582E43FF583E81258D390C2
:105623000330125698600BECF91273A51221B6E9F8
:10563300701712548D122127800F7BE91258B9126B
:105643001329EEFAEFFB1220D302343FEE241EF5AA
:1056530082E43FF58322EE242DF582E43FF5832295
:1056630012566A3FF58322242EF582E4221256A3B2
:1056730022125E13FA22124D54A3F0228E828F83DC
:10568300A3A3A3A3A3A3A3A3A3A3126755240FF5C3
:1056930082E438F5831247144922F0EE1256A3220E
:1056A3002426F582E43FF58322F0EE242A125E13CA
:1056B300221256B9E0221256BD22124C9AA3A3A37A
:1056C3002274F41203BC90032E12579D12159F8A65
:1056D3000A8B0B78FF79FF8020E0C39AFCA3E09B41
:1056E300FDC3EC98ED99500E8E828F83A3A3E0C384
:1056F3009AF8A3E09BF9125790EE4F605C8E828F6D
:1057030083124DD4E50AC39AFAE50B9BFB8E828F75
:1057130083124D7CC3EA9CEB9D8E828F83A3A340AF
:10572300B8A3A3A3A3E06402701AEE240B125E2AAB
:105733006009125788124DD412143DEEFAEFFB1292
:1057430020D38007EEFAEFFB1216597A017B009003
:105753000ED1E0F9121479802974FF68700374FF85
:1057630069601F88088909E4F50AF50B78081208AF
:10577300F47A017B00900ED1E0F9121581740412C2
:10578300090F02343FEE1265C73FF583228E828FE5
:1057930083A3A3A3A3A3A3A3A3A3E0FEA3E0FF2246
:1057A30074F01203BC8A088B09ECFAEDFB890A7CBE
:1057B30001E508241112698EF91220D98A0C8B0D88
:1057C300AE0CAF0DEE4F700302589DE50A60030265
:1057D300589DE5081258A01258B068600302589DFE
:1057E300EE242C125674E82AF8E43400F98E828FE2
:1057F30083A3A3A3A3A3A3A3A3E0FAE89AE9940032
:10580300C365D033401712698AF470117B001258B4
:10581300B9121329EEFAEFFB1220D3807D12698AA5
:10582300F47040EE2429125495242CF8E43FF9E84F
:10583300FCE9FD7508FF7509008C828D83E078080B
:10584300120A478A828B83E508F01258A6E508F00E
:105853008C828D831258B028F0EE124D2E3FF583C3
:10586300E4801BE5082414F8E43509F9E0C0E012EC
:1058730058A6D0E01258C8C0E0125483D0E0F0120A
:10588300159F1268AD1256591243CCA31258D37AFE
:1058930001FB900ED1E0F91214790240A9241312EE
:1058A3005B2822EE242AF582E43FF58322E0F8EE1A
:1058B3002428125E1322EE2422125E13FAEE24141D
:1058C300125E13F9221258CC22F088828983E022D7
:1058D300F0A3E4F0221258DF38F58322240FF58277
:1058E300E42274EC1203BC74FE12098D8A0A8B0B3A
:1058F3008C0E8D0F89108A828B83A3A3E0F9121378
:105903004D8A088B09AE08AF09EE4F70077A007B0A
:1059130000025AD57A127B001214C78A088B09EA4F
:1059230045097003025AD17C127D00790012141FBD
:10593300AA18AB19850A82850B83A3A3E0F9121376
:1059430071E508240FF50CE43509F50D7401120B0C
:10595300A2E0850C82850D83F07902AA08AB0912B7
:1059630020DF850E82850F83125B53A3A3A3E8F088
:10597300A3E9125B74850882850983A3A3A3A3A368
:10598300A3A3F07512FF751300850C82850D83E0C8
:105993007812120A47126A31E5121273801273A445
:1059A300E0C0E0125B20D0E0125B82F50CE5082436
:1059B3000D126A35E50CF0E50A125DF6850CF0A4CC
:1059C300A9F02427FAE439FB1214378A0C8B0DAEA5
:1059D3000CAF0DE508125B10125AE5EE4F7003028F
:1059E3005AC48E828F83741A1258D38E828F83A3E4
:1059F300A3F0A3125B921254BA125286AC0EAD0FEF
:105A0300125B0812136B850A82850B83A3A3A3E0A1
:105A1300C0E0125B30D0E0F0900372125B4E2410B2
:105A2300125B5D125ADF350B125B4C1246ED3FF5EC
:105A330083E8F0A3E9125B8CA3A3125B4E2412123A
:105A43005280850A82850B83A3A3E0C0E0125AFE2D
:105A5300D0E0F0E50A240C125AF5C0E0EE125ADF4A
:105A63003FF583D0E0F07416120BA2124FA0E0C0F2
:105A7300E0126980D0E0124FB6C0E0125B16D0E0AE
:105A8300125B58C0E0125B42D0E0125B69E510F094
:105A93007418120BA2120B73EE241AF582E43FF56D
:105AA30083120B67EE2427F8E43FF9EE2422125BFE
:105AB3005D125B3C125AF8C0E0125AEBD0E0F08062
:105AC3000DAA08AB091220D3750800750900AA08AE
:105AD300AB09740212090F7F0C0205D12415F5825C
:105AE300E422EEF0A3EFF022EE241FF582E43FF56B
:105AF3008322F582E4350BF583E022EE2414F5824C
:105B0300E43FF58322EE2406FAE43FFB222410123D
:105B13005B2822EE2417F582E43FF58322125B24EF
:105B230022E508240BF582E43509F58322125B3460
